{
  "contractName": "MyDefiUniswapV1",
  "abi": [
    {
      "inputs": [
        {
          "internalType": "address",
          "name": "_uniswapFactory",
          "type": "address"
        }
      ],
      "name": "setup",
      "outputs": [],
      "stateMutability": "nonpayable",
      "type": "function"
    },
    {
      "inputs": [
        {
          "internalType": "address",
          "name": "token",
          "type": "address"
        }
      ],
      "name": "createExchange",
      "outputs": [],
      "stateMutability": "nonpayable",
      "type": "function"
    },
    {
      "inputs": [
        {
          "internalType": "address",
          "name": "tokenAddress",
          "type": "address"
        }
      ],
      "name": "buy",
      "outputs": [],
      "stateMutability": "payable",
      "type": "function"
    },
    {
      "inputs": [
        {
          "internalType": "address",
          "name": "tokenAddress",
          "type": "address"
        }
      ],
      "name": "addLiquidity",
      "outputs": [],
      "stateMutability": "payable",
      "type": "function"
    }
  ],
  "bytecode": "0x608060405234801561001057600080fd5b506108be806100206000396000f3fe60806040526004361061003f5760003560e01c80631648f38e1461004457806366d382031461006d578063e3412e3d14610096578063f088d547146100b2575b600080fd5b34801561005057600080fd5b5061006b600480360381019061006691906105f5565b6100ce565b005b34801561007957600080fd5b50610094600480360381019061008f91906105f5565b61016e565b005b6100b060048036038101906100ab91906105f5565b6101b1565b005b6100cc60048036038101906100c791906105f5565b6103e2565b005b60008054906101000a900473ffffffffffffffffffffffffffffffffffffffff1673ffffffffffffffffffffffffffffffffffffffff16631648f38e826040518263ffffffff1660e01b81526004016101279190610631565b6020604051808303816000875af1158015610146573d6000803e3d6000fd5b505050506040513d601f19601f8201168201806040525081019061016a9190610661565b5050565b806000806101000a81548173ffffffffffffffffffffffffffffffffffffffff021916908373ffffffffffffffffffffffffffffffffffffffff16021790555050565b60008060009054906101000a900473ffffffffffffffffffffffffffffffffffffffff1673ffffffffffffffffffffffffffffffffffffffff166306f2bf62836040518263ffffffff1660e01b815260040161020d9190610631565b602060405180830381865afa15801561022a573d6000803e3d6000fd5b505050506040513d601f19601f8201168201806040525081019061024e9190610661565b905060008173ffffffffffffffffffffffffffffffffffffffff1663cd7724c3346040518263ffffffff1660e01b815260040161028b91906106a7565b602060405180830381865afa1580156102a8573d6000803e3d6000fd5b505050506040513d601f19601f820116820180604052508101906102cc91906106ee565b90508273ffffffffffffffffffffffffffffffffffffffff166323b872dd3330846040518463ffffffff1660e01b815260040161030b9392919061071b565b6020604051808303816000875af115801561032a573d6000803e3d6000fd5b505050506040513d601f19601f8201168201806040525081019061034e919061078a565b508173ffffffffffffffffffffffffffffffffffffffff1663422f104334838460784261037b91906107e6565b6040518563ffffffff1660e01b81526004016103999392919061081a565b60206040518083038185885af11580156103b7573d6000803e3d6000fd5b50505050506040513d601f19601f820116820180604052508101906103dc91906106ee565b50505050565b60008060009054906101000a900473ffffffffffffffffffffffffffffffffffffffff1673ffffffffffffffffffffffffffffffffffffffff166306f2bf62836040518263ffffffff1660e01b815260040161043e9190610631565b602060405180830381865afa15801561045b573d6000803e3d6000fd5b505050506040513d601f19601f8201168201806040525081019061047f9190610661565b905060008173ffffffffffffffffffffffffffffffffffffffff1663cd7724c3346040518263ffffffff1660e01b81526004016104bc91906106a7565b602060405180830381865afa1580156104d9573d6000803e3d6000fd5b505050506040513d601f19601f820116820180604052508101906104fd91906106ee565b90508173ffffffffffffffffffffffffffffffffffffffff1663ad65d76d348360784261052a91906107e6565b336040518563ffffffff1660e01b815260040161054993929190610851565b60206040518083038185885af1158015610567573d6000803e3d6000fd5b50505050506040513d601f19601f8201168201806040525081019061058c91906106ee565b50505050565b600080fd5b600073ffffffffffffffffffffffffffffffffffffffff82169050919050565b60006105c282610597565b9050919050565b6105d2816105b7565b81146105dd57600080fd5b50565b6000813590506105ef816105c9565b92915050565b60006020828403121561060b5761060a610592565b5b6000610619848285016105e0565b91505092915050565b61062b816105b7565b82525050565b60006020820190506106466000830184610622565b92915050565b60008151905061065b816105c9565b92915050565b60006020828403121561067757610676610592565b5b60006106858482850161064c565b91505092915050565b6000819050919050565b6106a18161068e565b82525050565b60006020820190506106bc6000830184610698565b92915050565b6106cb8161068e565b81146106d657600080fd5b50565b6000815190506106e8816106c2565b92915050565b60006020828403121561070457610703610592565b5b6000610712848285016106d9565b91505092915050565b60006060820190506107306000830186610622565b61073d6020830185610622565b61074a6040830184610698565b949350505050565b60008115159050919050565b61076781610752565b811461077257600080fd5b50565b6000815190506107848161075e565b92915050565b6000602082840312156107a05761079f610592565b5b60006107ae84828501610775565b91505092915050565b7f4e487b7100000000000000000000000000000000000000000000000000000000600052601160045260246000fd5b60006107f18261068e565b91506107fc8361068e565b9250828201905080821115610814576108136107b7565b5b92915050565b600060608201905061082f6000830186610698565b61083c6020830185610698565b6108496040830184610698565b949350505050565b60006060820190506108666000830186610698565b6108736020830185610698565b6108806040830184610622565b94935050505056fea2646970667358221220b311973e2526b72c26f7c5d44035b2f5afd111a855e6fb25c0c8e565a07ab84464736f6c63430008110033",
  "immutableReferences": {},
  "source": "pragma solidity ^0.8.0;\n\nimport \"@openzeppelin/contracts/token/ERC20/IERC20.sol\";\n\ninterface UniswapFactoryInterface {\n    // Create Exchange\n    function createExchange(address token) external returns (address exchange);\n\n    // Get Exchange and Token Info\n    function getExchange(address token)\n        external\n        view\n        returns (address exchange);\n\n    function getToken(address exchange) external view returns (address token);\n\n    function getTokenWithId(uint256 tokenId)\n        external\n        view\n        returns (address token);\n\n    // Never use\n    function initializeFactory(address template) external;\n}\n\ninterface UniswapExchangeInterface {\n    // Address of ERC20 token sold on this exchange\n    function tokenAddress() external view returns (address token);\n\n    // Address of Uniswap Factory\n    function factoryAddress() external view returns (address factory);\n\n    // Provide Liquidity\n    function addLiquidity(\n        uint256 min_liquidity,\n        uint256 max_tokens,\n        uint256 deadline\n    ) external payable returns (uint256);\n\n    function removeLiquidity(\n        uint256 amount,\n        uint256 min_eth,\n        uint256 min_tokens,\n        uint256 deadline\n    ) external returns (uint256, uint256);\n\n    // Get Prices\n    function getEthToTokenInputPrice(uint256 eth_sold)\n        external\n        view\n        returns (uint256 tokens_bought);\n\n    function getEthToTokenOutputPrice(uint256 tokens_bought)\n        external\n        view\n        returns (uint256 eth_sold);\n\n    function getTokenToEthInputPrice(uint256 tokens_sold)\n        external\n        view\n        returns (uint256 eth_bought);\n\n    function getTokenToEthOutputPrice(uint256 eth_bought)\n        external\n        view\n        returns (uint256 tokens_sold);\n\n    // Trade ETH to ERC20\n    function ethToTokenSwapInput(uint256 min_tokens, uint256 deadline)\n        external\n        payable\n        returns (uint256 tokens_bought);\n\n    function ethToTokenTransferInput(\n        uint256 min_tokens,\n        uint256 deadline,\n        address recipient\n    ) external payable returns (uint256 tokens_bought);\n\n    function ethToTokenSwapOutput(uint256 tokens_bought, uint256 deadline)\n        external\n        payable\n        returns (uint256 eth_sold);\n\n    function ethToTokenTransferOutput(\n        uint256 tokens_bought,\n        uint256 deadline,\n        address recipient\n    ) external payable returns (uint256 eth_sold);\n\n    // Trade ERC20 to ETH\n    function tokenToEthSwapInput(\n        uint256 tokens_sold,\n        uint256 min_eth,\n        uint256 deadline\n    ) external returns (uint256 eth_bought);\n\n    function tokenToEthTransferInput(\n        uint256 tokens_sold,\n        uint256 min_eth,\n        uint256 deadline,\n        address recipient\n    ) external returns (uint256 eth_bought);\n\n    function tokenToEthSwapOutput(\n        uint256 eth_bought,\n        uint256 max_tokens,\n        uint256 deadline\n    ) external returns (uint256 tokens_sold);\n\n    function tokenToEthTransferOutput(\n        uint256 eth_bought,\n        uint256 max_tokens,\n        uint256 deadline,\n        address recipient\n    ) external returns (uint256 tokens_sold);\n\n    // Trade ERC20 to ERC20\n    function tokenToTokenSwapInput(\n        uint256 tokens_sold,\n        uint256 min_tokens_bought,\n        uint256 min_eth_bought,\n        uint256 deadline,\n        address token_addr\n    ) external returns (uint256 tokens_bought);\n\n    function tokenToTokenTransferInput(\n        uint256 tokens_sold,\n        uint256 min_tokens_bought,\n        uint256 min_eth_bought,\n        uint256 deadline,\n        address recipient,\n        address token_addr\n    ) external returns (uint256 tokens_bought);\n\n    function tokenToTokenSwapOutput(\n        uint256 tokens_bought,\n        uint256 max_tokens_sold,\n        uint256 max_eth_sold,\n        uint256 deadline,\n        address token_addr\n    ) external returns (uint256 tokens_sold);\n\n    function tokenToTokenTransferOutput(\n        uint256 tokens_bought,\n        uint256 max_tokens_sold,\n        uint256 max_eth_sold,\n        uint256 deadline,\n        address recipient,\n        address token_addr\n    ) external returns (uint256 tokens_sold);\n\n    // Trade ERC20 to Custom Pool\n    function tokenToExchangeSwapInput(\n        uint256 tokens_sold,\n        uint256 min_tokens_bought,\n        uint256 min_eth_bought,\n        uint256 deadline,\n        address exchange_addr\n    ) external returns (uint256 tokens_bought);\n\n    function tokenToExchangeTransferInput(\n        uint256 tokens_sold,\n        uint256 min_tokens_bought,\n        uint256 min_eth_bought,\n        uint256 deadline,\n        address recipient,\n        address exchange_addr\n    ) external returns (uint256 tokens_bought);\n\n    function tokenToExchangeSwapOutput(\n        uint256 tokens_bought,\n        uint256 max_tokens_sold,\n        uint256 max_eth_sold,\n        uint256 deadline,\n        address exchange_addr\n    ) external returns (uint256 tokens_sold);\n\n    function tokenToExchangeTransferOutput(\n        uint256 tokens_bought,\n        uint256 max_tokens_sold,\n        uint256 max_eth_sold,\n        uint256 deadline,\n        address recipient,\n        address exchange_addr\n    ) external returns (uint256 tokens_sold);\n\n    function transfer(address _to, uint256 _value) external returns (bool);\n\n    function transferFrom(\n        address _from,\n        address _to,\n        uint256 value\n    ) external returns (bool);\n\n    function approve(address _spender, uint256 _value) external returns (bool);\n\n    function allowance(address _owner, address _spender)\n        external\n        view\n        returns (uint256);\n\n    function balanceOf(address _owner) external view returns (uint256);\n\n    function totalSupply() external view returns (uint256);\n\n    // Never use\n    function setup(address token_addr) external;\n}\n\ncontract MyDefiUniswapV1 {\n    UniswapFactoryInterface uniswapFactory;\n\n    function setup(address _uniswapFactory) external {\n        uniswapFactory = UniswapFactoryInterface(_uniswapFactory);\n    }\n\n    function createExchange(address token) external {\n        uniswapFactory.createExchange(token);\n    }\n\n    function buy(address tokenAddress) external payable {\n        UniswapExchangeInterface uniswapExchange = UniswapExchangeInterface(\n            uniswapFactory.getExchange(tokenAddress)\n        );\n        uint tokenAmount = uniswapExchange.getEthToTokenInputPrice(msg.value);\n\n        // here you can compare the price to other exchanges, and set up maybe a threshold  or even going to oracles.\n        uniswapExchange.ethToTokenTransferInput{value: msg.value}( // forward send all these ether of msg.value. that means that notation.\n            tokenAmount,\n            block.timestamp + 120,\n            msg.sender\n        );\n    }\n\n    function addLiquidity(address tokenAddress) external payable {\n        // becoming a liquidity provider to earn some interests.\n        UniswapExchangeInterface uniswapExchange = UniswapExchangeInterface(\n            uniswapFactory.getExchange(tokenAddress)\n        );\n        uint tokenAmount = uniswapExchange.getEthToTokenInputPrice(msg.value);\n\n        // here you can compare the price to other exchanges, and set up maybe a threshold  or even going to oracles.\n        IERC20(tokenAddress).transferFrom(\n            msg.sender,\n            address(this),\n            tokenAmount\n        );\n        uniswapExchange.addLiquidity{value: msg.value}(\n            tokenAmount,\n            tokenAmount,\n            block.timestamp + 120\n        );\n    }\n}\n",
  "sourcePath": "/home/javimetal/workspace/defi-programming-dai/contracts/uniswap/MyDefiUniswapV1.sol",
  "compiler": {
    "name": "solc",
    "version": "0.8.17+commit.8df45f5f.Emscripten.clang"
  },
  "schemaVersion": "3.4.10",
  "updatedAt": "2022-10-25T08:53:15.208Z",
  "networkType": "ethereum",
  "devdoc": {
    "kind": "dev",
    "methods": {},
    "version": 1
  },
  "userdoc": {
    "kind": "user",
    "methods": {},
    "version": 1
  }
}