{
  "contractName": "MyDefiCompound",
  "abi": [
    {
      "inputs": [
        {
          "internalType": "address",
          "name": "_dai",
          "type": "address"
        },
        {
          "internalType": "address",
          "name": "_cDai",
          "type": "address"
        },
        {
          "internalType": "address",
          "name": "_bat",
          "type": "address"
        },
        {
          "internalType": "address",
          "name": "_cBat",
          "type": "address"
        },
        {
          "internalType": "address",
          "name": "_comptroller",
          "type": "address"
        }
      ],
      "stateMutability": "nonpayable",
      "type": "constructor"
    },
    {
      "inputs": [],
      "name": "invest",
      "outputs": [],
      "stateMutability": "nonpayable",
      "type": "function"
    },
    {
      "inputs": [],
      "name": "cashOut",
      "outputs": [],
      "stateMutability": "nonpayable",
      "type": "function"
    },
    {
      "inputs": [],
      "name": "borrow",
      "outputs": [],
      "stateMutability": "nonpayable",
      "type": "function"
    },
    {
      "inputs": [],
      "name": "payback",
      "outputs": [],
      "stateMutability": "nonpayable",
      "type": "function"
    }
  ],
  "bytecode": "0x60806040523480156200001157600080fd5b5060405162001143380380620011438339818101604052810190620000379190620001f0565b846000806101000a81548173ffffffffffffffffffffffffffffffffffffffff021916908373ffffffffffffffffffffffffffffffffffffffff16021790555083600160006101000a81548173ffffffffffffffffffffffffffffffffffffffff021916908373ffffffffffffffffffffffffffffffffffffffff16021790555082600260006101000a81548173ffffffffffffffffffffffffffffffffffffffff021916908373ffffffffffffffffffffffffffffffffffffffff16021790555081600360006101000a81548173ffffffffffffffffffffffffffffffffffffffff021916908373ffffffffffffffffffffffffffffffffffffffff16021790555080600460006101000a81548173ffffffffffffffffffffffffffffffffffffffff021916908373ffffffffffffffffffffffffffffffffffffffff160217905550505050505062000278565b600080fd5b600073ffffffffffffffffffffffffffffffffffffffff82169050919050565b6000620001b8826200018b565b9050919050565b620001ca81620001ab565b8114620001d657600080fd5b50565b600081519050620001ea81620001bf565b92915050565b600080600080600060a086880312156200020f576200020e62000186565b5b60006200021f88828901620001d9565b95505060206200023288828901620001d9565b94505060406200024588828901620001d9565b93505060606200025888828901620001d9565b92505060806200026b88828901620001d9565b9150509295509295909350565b610ebb80620002886000396000f3fe608060405234801561001057600080fd5b506004361061004c5760003560e01c8063793cd71e14610051578063854bec871461005b578063e68d356914610065578063e8b5e51f1461006f575b600080fd5b610059610079565b005b6100636101bb565b005b61006d61045f565b005b6100776107c9565b005b6000600160009054906101000a900473ffffffffffffffffffffffffffffffffffffffff1673ffffffffffffffffffffffffffffffffffffffff166370a08231306040518263ffffffff1660e01b81526004016100d69190610970565b602060405180830381865afa1580156100f3573d6000803e3d6000fd5b505050506040513d601f19601f8201168201806040525081019061011791906109d5565b9050600160009054906101000a900473ffffffffffffffffffffffffffffffffffffffff1673ffffffffffffffffffffffffffffffffffffffff1663db006a75826040518263ffffffff1660e01b81526004016101749190610a11565b6020604051808303816000875af1158015610193573d6000803e3d6000fd5b505050506040513d601f19601f820116820180604052508101906101b791906109d5565b5050565b60008054906101000a900473ffffffffffffffffffffffffffffffffffffffff1673ffffffffffffffffffffffffffffffffffffffff1663095ea7b3600360009054906101000a900473ffffffffffffffffffffffffffffffffffffffff1660c86040518363ffffffff1660e01b8152600401610239929190610a71565b6020604051808303816000875af1158015610258573d6000803e3d6000fd5b505050506040513d601f19601f8201168201806040525081019061027c9190610ad2565b50600360009054906101000a900473ffffffffffffffffffffffffffffffffffffffff1673ffffffffffffffffffffffffffffffffffffffff16630e75270260646040518263ffffffff1660e01b81526004016102d99190610b3a565b6020604051808303816000875af11580156102f8573d6000803e3d6000fd5b505050506040513d601f19601f8201168201806040525081019061031c91906109d5565b506000600160009054906101000a900473ffffffffffffffffffffffffffffffffffffffff1673ffffffffffffffffffffffffffffffffffffffff166370a08231306040518263ffffffff1660e01b815260040161037a9190610970565b602060405180830381865afa158015610397573d6000803e3d6000fd5b505050506040513d601f19601f820116820180604052508101906103bb91906109d5565b9050600160009054906101000a900473ffffffffffffffffffffffffffffffffffffffff1673ffffffffffffffffffffffffffffffffffffffff1663db006a75826040518263ffffffff1660e01b81526004016104189190610a11565b6020604051808303816000875af1158015610437573d6000803e3d6000fd5b505050506040513d601f19601f8201168201806040525081019061045b91906109d5565b5050565b60008054906101000a900473ffffffffffffffffffffffffffffffffffffffff1673ffffffffffffffffffffffffffffffffffffffff1663095ea7b3600160009054906101000a900473ffffffffffffffffffffffffffffffffffffffff166127106040518363ffffffff1660e01b81526004016104de929190610b90565b6020604051808303816000875af11580156104fd573d6000803e3d6000fd5b505050506040513d601f19601f820116820180604052508101906105219190610ad2565b50600160009054906101000a900473ffffffffffffffffffffffffffffffffffffffff1673ffffffffffffffffffffffffffffffffffffffff1663a0712d686127106040518263ffffffff1660e01b815260040161057f9190610bb9565b6020604051808303816000875af115801561059e573d6000803e3d6000fd5b505050506040513d601f19601f820116820180604052508101906105c291906109d5565b506000600167ffffffffffffffff8111156105e0576105df610bd4565b5b60405190808252806020026020018201604052801561060e5781602001602082028036833780820191505090505b509050600160009054906101000a900473ffffffffffffffffffffffffffffffffffffffff168160008151811061064857610647610c03565b5b602002602001019073ffffffffffffffffffffffffffffffffffffffff16908173ffffffffffffffffffffffffffffffffffffffff1681525050600460009054906101000a900473ffffffffffffffffffffffffffffffffffffffff1673ffffffffffffffffffffffffffffffffffffffff1663c2998238826040518263ffffffff1660e01b81526004016106dd9190610cf0565b6000604051808303816000875af11580156106fc573d6000803e3d6000fd5b505050506040513d6000823e3d601f19601f820116820180604052508101906107259190610e3c565b50600360009054906101000a900473ffffffffffffffffffffffffffffffffffffffff1673ffffffffffffffffffffffffffffffffffffffff1663c5ebeaec60646040518263ffffffff1660e01b81526004016107829190610b3a565b6020604051808303816000875af11580156107a1573d6000803e3d6000fd5b505050506040513d601f19601f820116820180604052508101906107c591906109d5565b5050565b60008054906101000a900473ffffffffffffffffffffffffffffffffffffffff1673ffffffffffffffffffffffffffffffffffffffff1663095ea7b3600160009054906101000a900473ffffffffffffffffffffffffffffffffffffffff166127106040518363ffffffff1660e01b8152600401610848929190610b90565b6020604051808303816000875af1158015610867573d6000803e3d6000fd5b505050506040513d601f19601f8201168201806040525081019061088b9190610ad2565b50600160009054906101000a900473ffffffffffffffffffffffffffffffffffffffff1673ffffffffffffffffffffffffffffffffffffffff1663a0712d686127106040518263ffffffff1660e01b81526004016108e99190610bb9565b6020604051808303816000875af1158015610908573d6000803e3d6000fd5b505050506040513d601f19601f8201168201806040525081019061092c91906109d5565b50565b600073ffffffffffffffffffffffffffffffffffffffff82169050919050565b600061095a8261092f565b9050919050565b61096a8161094f565b82525050565b60006020820190506109856000830184610961565b92915050565b6000604051905090565b600080fd5b600080fd5b6000819050919050565b6109b28161099f565b81146109bd57600080fd5b50565b6000815190506109cf816109a9565b92915050565b6000602082840312156109eb576109ea610995565b5b60006109f9848285016109c0565b91505092915050565b610a0b8161099f565b82525050565b6000602082019050610a266000830184610a02565b92915050565b6000819050919050565b6000819050919050565b6000610a5b610a56610a5184610a2c565b610a36565b61099f565b9050919050565b610a6b81610a40565b82525050565b6000604082019050610a866000830185610961565b610a936020830184610a62565b9392505050565b60008115159050919050565b610aaf81610a9a565b8114610aba57600080fd5b50565b600081519050610acc81610aa6565b92915050565b600060208284031215610ae857610ae7610995565b5b6000610af684828501610abd565b91505092915050565b6000819050919050565b6000610b24610b1f610b1a84610aff565b610a36565b61099f565b9050919050565b610b3481610b09565b82525050565b6000602082019050610b4f6000830184610b2b565b92915050565b6000819050919050565b6000610b7a610b75610b7084610b55565b610a36565b61099f565b9050919050565b610b8a81610b5f565b82525050565b6000604082019050610ba56000830185610961565b610bb26020830184610b81565b9392505050565b6000602082019050610bce6000830184610b81565b92915050565b7f4e487b7100000000000000000000000000000000000000000000000000000000600052604160045260246000fd5b7f4e487b7100000000000000000000000000000000000000000000000000000000600052603260045260246000fd5b600081519050919050565b600082825260208201905092915050565b6000819050602082019050919050565b610c678161094f565b82525050565b6000610c798383610c5e565b60208301905092915050565b6000602082019050919050565b6000610c9d82610c32565b610ca78185610c3d565b9350610cb283610c4e565b8060005b83811015610ce3578151610cca8882610c6d565b9750610cd583610c85565b925050600181019050610cb6565b5085935050505092915050565b60006020820190508181036000830152610d0a8184610c92565b905092915050565b600080fd5b6000601f19601f8301169050919050565b610d3182610d17565b810181811067ffffffffffffffff82111715610d5057610d4f610bd4565b5b80604052505050565b6000610d6361098b565b9050610d6f8282610d28565b919050565b600067ffffffffffffffff821115610d8f57610d8e610bd4565b5b602082029050602081019050919050565b600080fd5b6000610db8610db384610d74565b610d59565b90508083825260208201905060208402830185811115610ddb57610dda610da0565b5b835b81811015610e045780610df088826109c0565b845260208401935050602081019050610ddd565b5050509392505050565b600082601f830112610e2357610e22610d12565b5b8151610e33848260208601610da5565b91505092915050565b600060208284031215610e5257610e51610995565b5b600082015167ffffffffffffffff811115610e7057610e6f61099a565b5b610e7c84828501610e0e565b9150509291505056fea26469706673582212206a471e3f7fef811fef5fef33aa1c68a39808974e1f9ad7ceaf1b6112da3fc00364736f6c63430008110033",
  "immutableReferences": {},
  "source": "pragma solidity ^0.8.0;\n\nimport \"@openzeppelin/contracts/token/ERC20/IERC20.sol\";\n\nimport \"./ComptrollerInterface.sol\";\nimport \"./cTokenInterface.sol\";\n\ncontract MyDefiCompound {\n    IERC20 dai;\n    CTokenInterface cDai;\n    IERC20 bat;\n    CTokenInterface cBat;\n    ComptrollerInterface comptroller;\n\n    constructor(\n        address _dai,\n        address _cDai,\n        address _bat,\n        address _cBat,\n        address _comptroller\n    ) {\n        dai = IERC20(_dai);\n        cDai = CTokenInterface(_cDai);\n        bat = IERC20(_bat);\n        cBat = CTokenInterface(_cBat);\n        comptroller = ComptrollerInterface(_comptroller);\n    }\n\n    function invest() external {\n        dai.approve(address(cDai), 10000); // allow our token dai to transfer\n        cDai.mint(10000); // intenally calls dai.transferFrom .. now we have cDain and we can earn interests\n    }\n\n    function cashOut() external {\n        uint balance = cDai.balanceOf(address(this)); // we can not assume that we have 10000.\n        cDai.redeem(balance);\n    }\n\n    function borrow() external {\n        dai.approve(address(cDai), 10000); // allow our token dai to transfer\n        cDai.mint(10000); // intenally calls dai.transferFrom .. now we have cDain and we can earn interests\n\n        address[] memory markets = new address[](1);\n        markets[0] = address(cDai);\n        comptroller.enterMarkets(markets);\n\n        cBat.borrow(100); // you have to consider that the value of the collateral should be superior that cBat, and collateral factor\n        // it tells how much collateral you need to have to borrow some token it is specific for each market.\n    }\n\n    function payback() external {\n        dai.approve(address(cBat), 200); // allow our token bat to transfer, 100 plus interests\n        cBat.repayBorrow(100); // finish your loan\n\n        //optional you can get back your collateral\n        uint balance = cDai.balanceOf(address(this)); // we can not assume that we have 10000.\n        cDai.redeem(balance);\n    }\n}\n",
  "sourcePath": "/home/javimetal/workspace/defi-programming-dai/contracts/compound/MyDefiCompound.sol",
  "compiler": {
    "name": "solc",
    "version": "0.8.17+commit.8df45f5f.Emscripten.clang"
  },
  "schemaVersion": "3.4.10",
  "updatedAt": "2022-10-25T08:53:12.430Z",
  "devdoc": {
    "kind": "dev",
    "methods": {},
    "version": 1
  },
  "userdoc": {
    "kind": "user",
    "methods": {},
    "version": 1
  }
}